:020000040800F2
:10000000C8040020A10100081F0F0008710E00089D
:100010001D0F0008E9040008D910000800000000C6
:10002000000000000000000000000000230F000896
:10003000EB04000800000000210F0008250F000855
:10004000BB010008BB010008BB010008BB010008A0
:10005000BB010008BB010008BB010008BB01000890
:10006000BB010008BB010008BB010008BB01000880
:10007000BB010008BB010008BB010008BB01000870
:10008000BB010008BB010008BB010008BB01000860
:10009000BB010008BB010008BB010008BB01000850
:1000A000BB010008BB010008BB010008BB01000840
:1000B000BB010008BB010008BB010008BB01000830
:1000C000BB010008BB010008BB010008BB01000820
:1000D000BB010008BB010008BB010008BB01000810
:1000E000BB010008BB010008BB010008BB01000800
:1000F000BB010008BB010008BB010008BB010008F0
:10010000BB010008BB010008BB010008BB010008DF
:10011000BB010008BB010008BB010008BB010008CF
:10012000BB010008BB010008BB010008BB010008BF
:10013000BB010008BB010008BB010008BB010008AF
:10014000BB010008BB010008BB010008BB0100089F
:10015000BB010008BB010008BB010008BB0100088F
:10016000BB010008BB010008BB010008BB0100087F
:10017000BB010008BB010008BB0100080000000033
:10018000BB010008BB010008DFF810D000F07CF8CC
:100190000048004785110008AFF30080C804002024
:1001A0000648804706480047FEE7FEE7FEE7FEE711
:1001B000FEE7FEE7FEE7FEE7FEE7FEE7BD0F00080D
:1001C000890100082DE9F05F0546002092469B4614
:1001D00088460646814640241BE02846414647465D
:1001E000224600F041F853465A46C01A914110D3B6
:1001F00011461846224600F028F82D1A67EB010830
:100200004F4622460120002100F01FF817EB00099D
:100210004E41201EA4F10104DFDC484631462A4647
:100220004346BDE8F09FD2B201E000F8012B491E21
:10023000FBD270470022F6E710B513460A46044683
:100240001946FFF7F0FF204610BD202A04DB203AB4
:1002500000FA02F1002070479140C2F1200320FA19
:1002600003F3194390407047202A04DB203A21FA17
:1002700002F00021704721FA02F3D040C2F12002BF
:100280009140084319467047064C074D06E0E06868
:1002900040F0010394E8070098471034AC42F6D3CD
:1002A000FFF776FFC4110008E411000800F040BF1A
:1002B00070B5124E0546002400220121304600F0A0
:1002C00021FA012000F009FFE80701D0012200E037
:1002D00000220221304600F015FA012000F0FDFE58
:1002E00001221146304600F00DFA012000F0F5FE23
:1002F000641C6D08E4B2082CDED370BD0018024007
:1003000070B50B4C054600220821204600F0FAF992
:10031000012000F0E2FE2846FFF7CAFF0122082173
:10032000204600F0EFF9BDE87040012000F0D5BE96
:10033000001802402DE9F04142F20F7188427DDC45
:100340000A2190FBF1F201FB120290FBF1F0644CE8
:10035000226090FBF1F201FB120290FBF1F062606F
:1003600090FBF1F201FB120290FBF1F0A26090FB16
:10037000F1F201FB120290FBF1F00020E260FFF7C6
:10038000BFFF0620FFF7BCFF4420FFF7B9FFE1697C
:10039000E068544D04F12706814222D000274FF037
:1003A000C008E06100220821284600F0ABF90120D6
:1003B00000F093FE08EB8700C0B2FFF779FFE0681A
:1003C000C0EBC0003044C05DFFF772FF012208217E
:1003D000284600F097F9012000F07FFE7F1C072FD0
:1003E000E0DBA169A068814222D000274FF0C1085C
:1003F000A06100220821284600F084F9012000F0C5
:100400006CFE08EB8700C0B2FFF752FFA068C0EB9C
:10041000C0003044C05DFFF74BFF01220821284691
:1004200000F070F9012000F058FE7F1C072FE0DB80
:1004300061696068814224D0002700E04DE04FF000
:10044000DC08606100220821284600F05BF90120E9
:1004500000F043FE08EB8700C0B2FFF729FF606899
:10046000C0EBC0003044C05DFFF722FF012208212D
:10047000284600F047F9012000F02FFE7F1C072FCF
:10048000E0DB21692068814222D000274FF0DD089F
:10049000206100220821284600F034F9012000F0F4
:1004A0001CFE08EB8700C0B2FFF702FF2068C0EB1C
:1004B000C0003044C05DFFF7FBFE01220821284642
:1004C00000F020F9012000F008FE7F1C072FE0DB80
:1004D000BDE8F0418F20FFF713BFBDE8F0810000B9
:1004E0001000002000180240FEE7704772B6FEE7D9
:1004F00070B5044600F00CF90546601C02D00448B3
:100500000078044400F004F9401BA042FAD370BD07
:10051000000000202DE9F84FDFF8BCA100220125E2
:1005200003264FF00F090AF1040BAAF1040E00BFD5
:100530000B6805FA02F42340A34270D10F7907F04B
:100540000307012F01D0022F16D187684FEA420816
:1005500006FA08FC27EA0C07D1F80CC00CFA08FCD4
:100560004CEA070CC0F808C04768A7430C79C4F3ED
:10057000001494403C4344600C79E443A4070AD03F
:10058000C4684FEA420C06FA0CF7BC438F6807FABE
:100590000CF72743C7600C7904F00304022C12D136
:1005A000D40800EB840CDCF820405707FF0E09FA52
:1005B00007F824EA0804D1F8108008FA07F848EA96
:1005C0000408CCF8208004684FEA420C06FA0CF7C5
:1005D000BC430F7907F0030707FA0CF727430760BE
:1005E0004C6814F4403F70D03C4C276847F4804777
:1005F0002760246822F0030704F480440094384CF8
:1006000007EB040CDCF8084897074FEA177809FA5B
:1006100008F7BC43334FB84202D1002724E054E02E
:10062000314FB84201D101271EE0304FB84201D10D
:10063000022719E02E4FB84201D1032714E02D4FB5
:10064000B84201D104270FE02B4FB84201D1052752
:100650000AE02A4FB84201D1062705E0284FB842E8
:1006600001D1072700E0082707FA08F72743CCF84D
:100670000878DAF800405746D1F804C09C435FEA96
:10068000CC2C00D51C433C60DBF800405F46D1F821
:1006900004C09C435FEA8C2C00D51C433C60DEF810
:1006A00000407746D1F804C09C435FEA8C3C00D5FB
:1006B0001C433C60084F083F3C68D1F804C09C4391
:1006C0005FEACC3C00D51C433C60521C102AFFF46E
:1006D0002FAFBDE8F88F0000083C014044380240CD
:1006E00000300140000002400004024000080240C7
:1006F000000C0240001002400014024000180240AA
:10070000001C02400AB1816170470904FBE7000048
:10071000014880687047000000000020024881689E
:100720000278114481607047000000200B4810B52A
:10073000016841F400710160016841F48061016069
:10074000016841F480710160032000F061F80F201E
:1007500000F006F800F024F8002010BD003C024034
:1007600070B50D4D04464FF47A712878B1FBF0F066
:100770000A490968B1FBF0F000F0FEFA48B9102C04
:1007800007D200222146501E00F022F800206C60A3
:1007900070BD012070BD0000000000200C00002092
:1007A0000A4808B5016841F480410160006800F41E
:1007B000804000900548001F016841F080510160B1
:1007C000006800F08050009008BD000044380240EE
:1007D000F0B40E4B1B680C46C3F30223C3F10705AC
:1007E000042D00D90425191D072901D2002300E09A
:1007F000DB1E012606FA05F1491E214099409E4064
:10080000761E16403143F0BC00F073BC0CED00E0E6
:10081000064900F0070208684FF6FF03184040EA57
:100820000220034A10430860704700000CED00E00E
:100830000000FA052DE9F0470E46050065D0DFF807
:100840001481D8F80000F7B200F00700B04207D2D8
:1008500088F80070D8F8000000F00700B04254D1CA
:1008600028683D4C810712D5400703D5206840F425
:10087000E05020602878000703D5206840F46040ED
:1008800020602068A96820F0F000084320602878E4
:10089000C0072DD0304968680839012812D00228D5
:1008A00013D0032811D00968890700292DDA21689F
:1008B00021F0030101432160FFF72AFF814641F245
:1008C000883A0EE009688903EFE709688901ECE7D7
:1008D000FFF71EFFA0EB0901514502D90320BDE837
:1008E000F0872068696800F00C00B0EB810FEFD151
:1008F000D8F80010404601F00701B14207D907704F
:10090000006800F00700B04201D00120E7E7287836
:10091000400705D52068E96820F4E05008432060CE
:100920002878000706D52068296920F4604040EA4D
:10093000C100206000F038F82168084AC1F30311B3
:10094000515CC8400649086006480068FFF708FF88
:100950000020C4E7003C024008380240AA11000809
:100960000C000020040000200448054900680968C4
:10097000044AC1F38221515CC84070470C0000203A
:1009800008380240BA11000804480549006809689F
:10099000044AC1F34231515CC84070470C0000204A
:1009A00008380240BA110008154810B5006810F068
:1009B0000C02144813D01449042A0FD0082A0ED16F
:1009C0000F4C241F2268236802F03F025B0207D508
:1009D0002068C0F38810A0FB010106E0084610BDA6
:1009E0002168C1F38811A1FB00010023FFF7EAFB96
:1009F0002168C1F30141491C4900B0FBF1F010BD71
:100A0000083802400024F40040787D012DE9F84FB9
:100A100004006ED02078DFF84C93C007A9F10405DC
:100A20004AD009F104000168C1F38101012908D00D
:100A30000068C0F3810002280AD1D9F80000400202
:100A400006D52868800337D560680028E1D033E0F8
:100A50006068B0F5803F10D0B0F5A02F286810D0A6
:100A600020F480302860286820F4802028606068A6
:100A7000A8B1FFF74DFE06460DE0286840F480302F
:100A8000F4E740F480202860F7E700BFFFF740FE5E
:100A9000801B642873D828688003F7D50CE0FFF723
:100AA00037FE064605E000BFFFF732FE801B6428D4
:100AB000F0D828688003F7D42078DFF8AC8280076C
:100AC0004FF0000A3ED5A748001D016811F00C0F39
:100AD00008D00068C0F3810002280BD1D9F80000CB
:100AE000400207D42868800716D5E068012800D1A5
:100AF00012E033E1E068B8B10120C8F80000FFF768
:100B000007FE064605E000BFFFF702FE801B022835
:100B1000C0D828688007F7D52868216920F0F80038
:100B200040EAC10028600DE0C8F800A0FFF7F0FD22
:100B3000064604E0FFF7ECFD801B02281FD828685A
:100B40008007F7D42078000722D5864F874861694F
:100B5000703771B101210160FFF7DAFD064604E04C
:100B6000FFF7D6FD801B022809D838688007F7D523
:100B70000EE0C0F800A0FFF7CBFD064605E082E0DE
:100B8000FFF7C6FD801B02287DD838688007F7D4A0
:100B90002078400768D5DFF8CCB100270BF13C0B7B
:100BA000DBF80000C0000BD4DBF8001041F08051EE
:100BB000CBF80010DBF80000012700F08050009017
:100BC0006B4E3068C00510D4306840F480703060DF
:100BD000FFF79EFD009005E0FFF79AFD0099401A8F
:100BE000022850D83068C005F6D55E4EA0686C3635
:100BF00001280FD00528306810D020F001003060A7
:100C0000306820F004003060A068B8B1FFF780FDC4
:100C100000900FE0306840F00100F4E740F004007D
:100C20003060F7E7FFF774FD0099411A41F2883010
:100C3000814266D830688007F4D50EE0FFF768FD82
:100C4000009007E0FFF764FD0099411A41F28830F7
:100C5000814256D830688007F4D42FB1DBF80010F9
:100C600021F08051CBF80010A069C8B33D49091D9F
:100C70000968C1F3810102294AD00228504607D0F1
:100C8000C8F8600000E03CE0FFF742FD04463BE0AE
:100C90004746C8F86000FFF73BFD064605E000BF89
:100CA000FFF736FD801B02282BD828688001F7D477
:100CB000D4E907010843A16A2E4A490802EB014121
:100CC000626A41EA8211084394F82C1040EA0161FB
:100CD000C9F8001001203866FFF71AFD044606E047
:100CE0003EE000BFFFF714FD001B022809D828686A
:100CF0008001F7D534E000BFFFF70AFD001B022892
:100D000002D90320BDE8F88F28688001F4D427E0D9
:100D10000128F7D0D9F80000E26900F4800191427F
:100D20001CD1226A00F03F01914217D147F6C071F1
:100D3000626A0140B1EB821F10D1A26A4FF0FF330B
:100D400000F4403103EB5202B1EB024F06D194F8AC
:100D50002C1000F07060B0EB016F01D00120D1E7E2
:100D60000020CFE70438024000004742800E47428F
:100D7000007000400000FFFF10B5401EB0F1807F02
:100D800001D3012010BD4FF0E02460610F216017F6
:100D900000F0AFF90020A06107202061002010BD05
:100DA00070B5040004D094F83D00002510B106E0B1
:100DB000012070BD84F83C50204600F023F8242028
:100DC00084F83D002068C16821F40051C1602046CC
:100DD00000F0FCF82068016921F49041016120686D
:100DE000416921F02A0141612068C16841F4005144
:100DF000C1602564202084F83D0084F83E00002076
:100E000070BD000010B586B0044614216846FFF797
:100E100011FA14492068884221D113480021026840
:100E200042F010020260006800F0100005900E48C9
:100E30001438026842F001020260006800F001000C
:100E400005904FF4C06000900220CDE9010103201D
:100E500003900720049069460448FFF75BFB06B047
:100E600010BD000000100140443802400000024064
:100E7000FEE7000030B587B014216846FFF7DAF9C5
:100E800016480024016841F080010160016801F00A
:100E900080010591016841F040010160016801F0A5
:100EA00040010591016841F00101016000680C4DAD
:100EB00000F00100059000220B212846FFF722FCDC
:100EC0000B2000901120CDE9010403200390694616
:100ED0002846FFF71FFB07B030BD00003038024046
:100EE000001802400C4810B50A4901604FF4E13186
:100EF0004160002181600C22C160C0E9041281615F
:100F0000C161FFF74DFF002803D0BDE81040FFF797
:100F1000EDBA10BD0010014080000020FEE7FEE7A2
:100F200070477047FFF7FABB30B593B03021684681
:100F3000FFF780F914210CA8FFF77CF91D48002564
:100F4000016841F080510160006800F0805011900C
:100F50001948016841F4804101600068022400F4EE
:100F6000804011900120039010200490009406947A
:100F70000820CDE90750A820CDE9090404200B90F2
:100F80006846FFF743FD08B172B6FEE70CA90F20D3
:100F900081E831004FF4A0500F904FF48050109032
:100FA00005210CA8FFF746FC002801D072B6FEE729
:100FB00013B030BD40380240007000400248016864
:100FC00041F470010160704788ED00E070B504469F
:100FD00000680169E26821F440511143016121690F
:100FE000A068E26908436169114308432168CA683F
:100FF00049F20C639A430243CA6020684169A269BE
:1010000021F440711143416131492068884202D086
:101010003049884202D1FFF7B7FC01E0FFF7A4FC9A
:10102000E2690023192164253226B2F5004F626877
:1010300028D0A0FB0101930F9200FFF7C3F80146EF
:10104000B0FBF5F06FF01802504301EB800006EBA7
:101050000010B0FBF5F000F0F002B1FBF5F002EB90
:101060000012B1FBF5F06FF01803584301EB80005C
:1010700006EB0010B0FBF5F000F00F002168104403
:10108000886070BDA0FB010192185B41FFF79AF8E0
:101090000146B0FBF5F00201B1FBF5F06FF018036B
:1010A000584301EB800006EBC000B0FBF5F000F008
:1010B000F80002EB4002B1FBF5F0584301EB800071
:1010C00006EBC000B0FBF5F000F00700D6E700002B
:1010D0000010014000140140FEE7002808D000BFC6
:1010E00000BF022100BF491CA829FBDB401EF6D12E
:1010F00070470907090E002804DB00F1E02080F8A2
:101100000014704700F00F0000F1E02080F8141D7B
:10111000704702E008C8121F08C1002AFAD17047C0
:101120007047002001E001C1121F002AFBD1704767
:1011300070B50020FFF7E4F80620FFF7E1F8402043
:10114000FFF7DEF80E4D002208212846FFF7DAFAF5
:101150000120FFF7C2FFC020FFF7AAF800240020FB
:10116000FFF7A6F8641C382CF9DB01220821284679
:10117000FFF7C8FABDE870400120FFF7AEBF0000DE
:1011800000180240FFF7D2FAFFF7CEFEFFF772FE1B
:10119000FFF7A8FEFFF78AF800242046641CFFF73B
:1011A000C9F86420FFF7A4F9F7E700000000000089
:1011B0000000010203040607080900000000010204
:1011C00003040000E411000800000020800000007B
:1011D000121100086412000880000020480400007A
:1011E00022110008010000001000000000000000B3
:1011F0000024F400000000000000000000000000D7
:1012000000000000000000000000000000000000DE
:101210000000000000E7427E42E700003C424242FC
:101220003C0000303830307800003C4230087E000E
:10123000003C4038403C0000203826FF2000007C65
:10124000027E403E0000100C76C27C00007E201022
:10125000080C00003C423E433E00003E4326180876
:04126000000000008A
:040000050800018965
:00000001FF
